:020000040800F2
:10000000B84D0020AD2E0008C52E0008C72E0008F0
:10001000C92E0008CB2E0008CD2E000800000000DD
:10002000000000000000000000000000A112000815
:10003000CF2E00080000000049120008892A00089D
:10004000F92E0008FD2E0008012F0008052F0008DA
:10005000092F00080D2F0008112F0008152F000888
:10006000192F00081D2F0008212F0008252F000838
:10007000292F00082D2F0008312F0008352F0008E8
:10008000392F00083D2F0008412F0008452F000898
:10009000492F00084D2F0008512F0008552F000848
:1000A000592F00085D2F0008612F0008652F0008F8
:1000B000692F00086D2F0008712F0008752F0008A8
:1000C000792F00087D2F0008812F0008852F000858
:1000D000892F00088D2F0008912F0008952F000808
:1000E000992F00089D2F000800000000A12F000894
:1000F000A52F0008A92F0008AD2F0008B12F000878
:10010000B52F0008B92F0008BD2F0008C12F000827
:10011000C52F0008C92F0008CD2F0008D12F0008D7
:10012000D52F0008D92F0008DD2F0008E12F000887
:10013000E52F0008E92F0008ED2F0008F12F000837
:1001400000000000000000000000000000000000AF
:10015000F52F0008F92F0008FD2F000801300008D6
:1001600005300008093000080D3000081130000883
:1001700015300008193000081D300008000000008C
:100180002130000825300008293000082D300008F3
:100190003130000835300008393000083D300008A3
:1001A00041300008453000084930000800000000D8
:1001B0004D30000851300008553000085930000813
:1001C0005D30000861300008000000000000000001
:1001D0000000000000000000653000080000000082
:1001E000000000000000000000000000000000000F
:1001F0000000000000000000693000086D300008B9
:1002000071300008753000080000000079300008E7
:100210007D300008813000088530000889300008F2
:100220008D30000800000000913000080000000040
:100230009530000899300008000000009D3000084B
:10024000A1300008A5300008A9300008AD30000832
:10025000B1300008B5300008B9300008BD300008E2
:10026000C1300008C5300008C9300008CD30000892
:10027000D1300008D5300008D93000080000000057
:10028000DD300008E1300008E5300008E930000802
:1002900000000000ED300008F13000080000000010
:1002A00000000000F5300008F9300008FD300008BB
:1002B0000131000805310008093100080D3100083E
:1002C00011310008D12E000815310008F0B585B0B5
:1002D00050260B9D25B986F3118800F05EFBFEE7E2
:1002E0000C9C24B986F3118800F057FBFEE75C27CD
:1002F0000097DDF800E0BEF15C0F04D086F31188B2
:1003000000F04BFBFEE7009E25630225002784F8E2
:10031000595004AD0397029401950A9E009600F08F
:1003200034F8204600F078F8049805B0F0BD2DE9C7
:10033000F8430646174684B088469946B80000F050
:1003400077FB04001CD05C2000F072FB050014D089
:1003500000202C6385F859000D9A03900C980192A7
:100360004B4600903A4602954146304600F00DF863
:10037000284600F051F8012004E0204600F0E7FB99
:100380004FF0FF3005B0BDE8F0832DE9F0470A9F3C
:1003900081460C4615469A46A522386BA90000F006
:1003A00029FC3A6B02EB850107F13405081FC008F0
:1003B0004FEAC00808F0070054B10021625C6A549B
:1003C000605C10B1491C1029F8D30020E87300E0EC
:1003D0002870089E372E88BF3726099CFE62AE61C2
:1003E000C6F13806E861381D00F02EFC07F1180050
:1003F00000F02AFC3F610020BE6100217F6252466E
:100400002862404687F85810494600F06FFC386073
:1004100004B12760BDE8F0872DE9F04100F056F8FF
:10042000E86C1426DFF80875401CE864A86A40BB35
:10043000AC62E96C01292CD1002506FB05F06D1C8E
:10044000381800F0F4FB382DF7D3DFF8445505F1E8
:10045000740005F1880800F0EAFB404600F0E7FB75
:10046000284600F0E4FB05F1140000F0E0FB05F184
:10047000380000F0DCFB05F17401E962C5F830805A
:1004800007E0A86D28B9E16AA86AC26A914228BF4C
:10049000AC62A96EE06A491C61646A6D824238BF31
:1004A00068654643A966211DB81900F0D0FB00F02D
:1004B000A9FCA86D40B1A96AE26AC86A904203D259
:1004C00000F029F800F069FABDE8F0810446DFF891
:1004D000C05400F07EBC80B570B1DFF8B424116F59
:1004E00011B100F057FAFEE7136F5B1C136700F0C1
:1004F0006BFA00F053F818B900F007F800F04DFA65
:1005000001BD04F1180000F0C8BB4FF08050DFF8C7
:10051000B414086070474FF08051DFF8A8341960B8
:10052000704780B586B00020059003AA049004A906
:1005300005A800F0BFFC059A049802920021039AD6
:100540000190009100230FF2E0410FF24130FFF7DC
:10055000BDFE98B100F0B8FC5021012810D181F304
:10056000118800F01AFADFF8B0044FF0FF31C166CD
:10057000012282650023036500F0DAFB07B000BDAD
:1005800010F1010FFAD181F3118800F006FAFEE7AD
:10059000DFF88404016F491C0167704770B5DFF80C
:1005A000F0630024306F002520B900F0A9F800F0B6
:1005B000F4F9FEE700F00DFC316F491E3167306F32
:1005C000002837D1F16CD1B934E0F068C468FFF786
:1005D00098FF00F010F9E36A716D994238BF7365B6
:1005E0001422DFF838045343211DC01800F02FFBFC
:1005F000E16AB06AC26A914224BF01213166306863
:100600000028E2D10CB100F078F9F46D44B100F0AB
:1006100016F808B101203066641EF8D10021F1659A
:10062000306E38B14FF08051DFF89823012511600A
:1006300000F0B3F9B6E1DFF8E003006D70472DE993
:10064000F843DFF84C630025306F002852D1346D39
:10065000641C346510D1F06A006820B100F050F8D5
:1006600000F09BF9FEE7F06A316BF1623063706E67
:10067000401C706600F041F9F06E4FF01409DFF88D
:100680009C83844227D31FE0F16ACA68D7687868E0
:1006900084422DD3381D00F000FBB86A18B107F171
:1006A000180000F0FAFAF86A716D814238BF70657F
:1006B00009FB00F0391D404400F0C9FAF86AB16A3C
:1006C000CA6A904228BF0125F06A00680028DBD181
:1006D0004FF0FF31F166B06AC06A09FB00F958F8C3
:1006E0000910022928BF0125306E30B1012504E030
:1006F000F066F0E7F06D401CF0652846BDE8F28337
:10070000502181F31188704710B5DFF88422106FF3
:1007100010B10121116610BD1066506DDFF8FC327A
:1007200000E0401E14244443195921B90028F8D18F
:1007300000F030F9FEE7191901F108044B685B6815
:100740004B60A34204BF5B684B604968CB6893620F
:10075000506510BD10B50C4610B900F01BF9FEE74E
:1007600000F01BF800F080FA20460121BDE810409F
:1007700000F02AB938B50D46144610B900F00AF950
:10078000FEE700F00AF800F062FA0CB14FF0FF3516
:1007900021462846BDE8344016E1DFF87C22936A02
:1007A00003F11801704738B5C068C46824B9FFF771
:1007B000A7FF00F0F2F8FEE704F11800DFF8585246
:1007C00000F06BFA296F41B900F015F800F016F847
:1007D00038BF6A6500F0F0F802E004F1180128461D
:1007E00000F035FA00F0E2F803D2012301202B6675
:1007F00032BD002032BD201D00F04FBAE26A686DA4
:10080000904270471420DFF814324243211D98189B
:1008100000F01DBADFF800124A6E0260096D4160F7
:100820007047F8B504460D46502014B900F0B3F8EF
:10083000FEE715B900F0AFF8FEE700F0CAFADFF8FE
:10084000D801016D62682E688B1A16F1010F0ED067
:10085000476ED4F800C0674501D091420BD2B34235
:1008600007D2F31A2B60416E2160006D6060002496
:1008700002E000212960012400F0C4FA2046F2BD04
:100880000120DFF8941108667047000070B5284C0D
:10089000DFF8845111E000F09CFA286AC668301D28
:1008A00000F0FBF9E86C401EE864696B491E69635F
:1008B00000F0A8FA304600F00BF8686B0028EAD187
:1008C0002268022AF9D3FFF720FE00F066F8F4E769
:1008D00010B5044694F8590040B9206B00F037F980
:1008E0002046BDE8104000F032B910BD0128F7D015
:1008F0000228FAD000F04EF8FEE72549C86A0068E1
:1009000018B94FF0FF32CA667047C86AC268D36828
:100910005868C8667047DFF80011886D08B9012073
:100920007047086F08B90220704700207047000028
:10093000403C002038B50446002134B3DFF8D850DD
:100940005022A86A844204D082F3118800F025F86E
:10095000FEE7206D20B982F3118800F01EF8FEE753
:10096000E26A401EE36C20659A420ED068B9FFF738
:1009700042FFE26CE262C2F13800A061696D91420F
:1009800038BF6A65FFF73EFF0121084632BD00000F
:1009900084480020502080F31188BFF34F8FBFF3AD
:1009A0006F8F704700F02EFA284670BDA86AE26A81
:1009B000C16A9142704700001420184B4243211D28
:1009C0009818704704ED00E0F8B5134E0C46376DEB
:1009D000B16A0546081D00F060F915F1010F05D157
:1009E00024B1B06A011D06F1380019E0B06AED19B2
:1009F000BD424560B06A05D2011D306BBDE8F440D0
:100A000000F032B9011DF06A00F02EF9F06E854257
:100A100038BFF566F1BD000084480020403C00204E
:100A2000BDE8F44000F013B949444C450000000013
:100A30002DE9F84304464FF00008FFF7A9FD6C4983
:100A40000025886810BB01F1200616F0070F01F1A0
:100A500020024FF47050134606D0D31DDB08DB0094
:100A6000C3F5705902EB0900C0180838C008C0006F
:100A70000B60C21A4D608860456005605A604FF097
:100A80000042186058680861C860CA61C8694FF0C0
:100A9000500904424BD1002C49D0083414F0070F00
:100AA0001FBF04F1080204F00700141A14F0070F26
:100AB00002D000F045F8FEE7002C38D0CA68A24208
:100AC00035D30E6801E0314606467068A04202D276
:100AD00030680028F7D1464FB868864227D0326880
:100AE0000B680A607268121B112A03F108080CD304
:100AF000311911F0070002D000F022F8FEE7301D96
:100B000002510846746000F04FF87168F868401AA6
:100B1000F8603B69984288BF18463861F86901431C
:100B2000716035607A6908F00705521C7A61FFF739
:100B300035FD15B100F004F8FEE74046BDE8F2834C
:100B400089F31188BFF34F8FBFF36F8F7047002871
:100B500000D1704738B5A0F10804254D6168EA69F5
:100B60005023114202D100F018F8FEE7206810B1BE
:100B700000F013F8FEE791436160FFF709FDE968B3
:100B8000606841182046E96000F00EF8A969491C28
:100B9000A961BDE83140FFF701BD83F31188BFF3C0
:100BA0004F8FBFF36F8F7047114930B50A4600E091
:100BB0001A4613688342FBD35368D418844203D186
:100BC0004068C3181046536043681468C518A542AE
:100BD00008D189688C4204D06168CB1843602468CE
:100BE00000E00C460460824218BF106030BD000077
:100BF0002000002062F30F2262F31F4200B500BF05
:100C0000130096469446103928BFA0E80C50FAD835
:100C10005FEA417C28BF0CC048BF40F8042BC907DD
:100C200028BF20F8022B48BF00F8012B00BD4FF071
:100C3000FF3200F10801826000F1080341600022E8
:100C4000C36001610260704700210161704710B507
:100C500042684A6093688B60946861609160086143
:100C60000168491C016010BD30B50A6812F1010F1E
:100C700008BF036907D000F1080300E023465C6861
:100C80002568AA42FAD25A684A6091608B6059601E
:100C900008610168491C016030BD10B543680169F5
:100CA00082689A608268446854604B68834204BFDB
:100CB00082684A60002303610868401E0860086873
:100CC00010BD0EE002684368821808305FEAC37CFA
:100CD00044BF4B445B1E52F804CB43F804CB091FBE
:100CE000F9D150F8041B0029ECD17047490849009C
:100CF00010B5A0F120034FF0807499610FF2150137
:100D00001A606FF00202DC61596140F8242D20382E
:100D100010BD00005A4950204A6812F1010F80F3BB
:100D20001188BFF34F8FBFF36F8F00D0FEE7FEE750
:100D30007CB5544A50211068534B984202D100F0C0
:100D4000B1F8FEE71068514B984202D100F0AAF8C2
:100D5000FEE74F4BFF261C78072001941E701D787C
:100D6000474E8DF800509DF8004004F05004347058
:100D700005E09DF80040401E64008DF800409DF89D
:100D800000603406F5D4454215F1030F3C4C03D006
:100D9000A06000F087F8FEE7000200F4E060A060C9
:100DA00001981870116A41F470011162106A40F0E4
:100DB0007040106200F032FA0021616000F08EFA9B
:100DC0003448026842F04042026000F077FA0020A6
:100DD00076BD502080F31188BFF34F8FBFF36F8F24
:100DE00027494A68521C012A4A600AD12A490A68DE
:100DF000130606D080F31188BFF34F8FBFF36F8FB8
:100E0000FEE770471E49486838B9502080F31188C2
:100E1000BFF34F8FBFF36F8FFEE7401E486008BFE0
:100E200080F31188704780B5502080F31188BFF39C
:100E30004F8FBFF36F8FFFF702FC18B14FF0805058
:100E400015490860002282F3118801BD10B5EFF347
:100E50000580502110280A4A07D3104B185C1478DB
:100E6000A04202D200F01EF8FEE790680C4A136818
:100E700003F4E063984202D200F014F8FEE710BDDC
:100E80000000002000ED00E071C20F4170C20F4170
:100E900000E400E034EF00E004ED00E0F0E300E007
:100EA0000CED00E081F31188BFF34F8FBFF36F8F1C
:100EB00070470000034B036003F15C000860802171
:100EC00011607047FC44002010B586B0DFF8344351
:100ED00000F070F9A068C0B1002103AA059105A82F
:100EE000049104A900F008FA0222059800920499DE
:100EF000039A0290019100230FF210310FF27D004E
:100F0000FFF7E4F90028E06005D1502181F3118852
:100F100000F007F8FEE7012006B010BD502080F376
:100F20001188BFF34F8FBFF36F8F7047F8B504463A
:100F300084B01E46002014B9FFF7F0FFFEE7DFF88B
:100F4000C472BD68BDB106290091019202940CDA09
:100F5000FFF7E1FC022807BF0A9A002300230022C2
:100F6000B868694600F055FA05E000233246694644
:100F7000284600F0E2FA05B0F0BD0000F8B586B0F2
:100F8000DFF880522968086810B90124002602E0C1
:100F9000C86800240668FFF7FBFA01A800F0B3F860
:100FA0000746019800283FD154BBB7422DD3FFF725
:100FB000F5FA2868C168CC68201DFFF76EFE94F82A
:100FC0002800410717D5A16933463A4620468919BA
:100FD00000F0D6F840B100200023009032460021F6
:100FE0002046FFF7A3FF18B1216A2046884725E075
:100FF000FFF794FFFEE700F0FE0084F82800F3E717
:10100000686801684C1EA441E40FA8682246F11BE1
:1010100000F022FCFFF7C2FA80B94FF080507A4905
:101020000860FFF77EFF09E0FFF7B8FA06E094F8E2
:10103000280081073BD42046FFF789FDA8680022DD
:1010400002A900F0CCFA00289CD00298002803D511
:1010500005990498039A904702980028EED4049CBE
:10106000606910B1201DFFF718FE01A800F04BF8D1
:1010700002990929E2D8DFE801F02121211A0706A7
:1010800021211A07DAE7D2E794F8282042F001027A
:1010900084F828200399A16131B10346024609185A
:1010A000204600F06DF8C9E7FFF738FFFEE794F837
:1010B000280000F0FE0084F82800BFE794F828100C
:1010C0000246A06941F0010184F8281003990B46FB
:1010D0004118204600F054F80028AFD0216A20467D
:1010E000884794F828004207A8D50021039A009168
:1010F000A069002382182046FFF718FF00289DD121
:10110000FFF70CFFFEE72DE9FC4104463D4EFFF7DB
:1011100092FA0546306985420BD3002121602846AA
:101120003561BDE8F6817860391D3F613068FFF7B1
:101130009BFD31680868F0B1C868C768D0F80080C6
:10114000381DFFF7AAFD396A3846884797F8280006
:101150004207EED5B86940448045E4D3002000231F
:101160000090424600213846FFF7E0FE0028E0D11B
:10117000FFF7D4FEFEE77068716030600121CDE7B3
:1011800038B500248A4241601E4D006106D3D21A50
:1011900083699A4206D2011D686807E09A4203D229
:1011A000994201D3012403E0011D2868FFF75CFD8B
:1011B000204632BD1CB5FFF70CFE124CA068E0B90A
:1011C00004F11400FFF733FD04F12800FFF72FFDB1
:1011D00004F1140004F1280100222060616004F190
:1011E0003C03009204F18C0210210A2000F0C7F8A1
:1011F000A06010B107A100F01AFBBDE81340FFF793
:1012000001BE00005847002004ED00E0546D72203C
:1012100053766300546D72510000000030B50848E9
:101220000023036000248460064D29684FF47A721D
:101230000723B1FBF2F2521E4260036030BD00BFD3
:1012400010E000E018000020EFF30980BFF36F8F7B
:10125000264B1A681EF0100F08BF20ED108A20E9F7
:10126000F04F106009B44FF0500080F31188BFF3C5
:101270004F8FBFF36F8FFFF747FA4FF0000080F3F7
:10128000118809BC19680868B0E8F04F1EF0100F0B
:1012900008BFB0EC108A80F30988BFF36F8F7047E6
:1012A000124B19680868B0E8F04F80F30988BFF363
:1012B0006F8F4FF0000080F3118870470C48006872
:1012C000006880F308884FF0000080F3148862B64D
:1012D00061B6BFF34F8FBFF36F8F00DFDFF81400ED
:1012E000016841F47001016070470000AC480020C3
:1012F00008ED00E088ED00E0044B036003F15C00C2
:1013000008604FF480711160704700BFA04000205A
:1013100070B504000D4602D100F073F8FEE7FFF748
:1013200058FD206CE16B2268002600FB01F3491E8A
:1013300048434FF0FF31D318A3601018A663E06054
:1013400004F1440062600170417065B9206990B198
:1013500000F0E5F978B14FF08050DFF8F414086040
:1013600000F0C3F907E004F11000FFF760FC04F19E
:101370002400FFF75CFCFFF745FD012070BD7CB544
:101380001C46502320B983F3118800F0AEF9FEE724
:1013900024B983F3118800F0A8F9FEE72AB129B92E
:1013A00083F3118800F0A1F9FEE781B9502500957B
:1013B000009E502E10D1009B3CB1069B012584F865
:1013C00046500094DBB200F00CF8204676BD83F363
:1013D000118800F08AF9FEE783F3118800F085F99F
:1013E000FEE738B51C46049D00290CBF2D602A601D
:1013F000E863284629640121FFF78AFF85F84C40FD
:1014000031BD502080F31188BFF34F8FBFF36F8F32
:1014100070472DE9F64782B004461E46502714B99E
:1014200000F061F9FEE75FEA010A01D1206C60B9C2
:10143000022E02D1E06B01280AD1FFF76CFA50B9F5
:10144000039840B100F04FF9FEE700F04CF9FEE7D9
:1014500000F049F9FEE72746002400F03FF92DE0AF
:10146000039800284AD00CB900F055F9FFF7CAFCE0
:10147000FFF78EF8FFF7ADFC07F1440000F041F9EB
:1014800004BF0022027000F041F904BF0022427044
:10149000FFF7B8FC00F04DF8002844D1FFF799FCA5
:1014A000B86BF96B884214BF00250125FFF7AAFC31
:1014B00045BB384600F07EF9FFF770F8FFF789FC6E
:1014C000B86BF96B884201D3022EC9D1324651461E
:1014D000384600F028F9796A29B107F12400FFF7AE
:1014E00062F908B904E018B1C8F8009000F0FDF8FE
:1014F000FFF788FC012004B0BDE8F087FFF782FC0D
:101500000020F8E7039907F11000FFF723F93846A8
:1015100000F050F9FFF742F80028CFD1C8F800904A
:1015200000F0E3F8CAE7384600F044F9FFF736F870
:10153000E6E703A96846FFF774B92DE9F8430446C6
:10154000884616461D46502714B900F0CCF8FEE731
:10155000B8F1000F01D1206C28BB022D02D1E06B45
:10156000012823D1FFF772FCEFF3118987F311886B
:1015700000F02DF801D3022D20D194F94570A06B15
:101580002A464146204600F0CEF817F1010F10D14F
:10159000606A88B100F017F8002818BF002E0BD041
:1015A0000120306008E000F09EF8FEE700F09BF8B4
:1015B000FEE77F1C84F84570012000E0002089F3DD
:1015C0001188BDE8F28304F12400FFF7ECB8BFF303
:1015D0004F8FBFF36F8FA06BE16B884270472DE98F
:1015E000F74306460F460024502526B985F3118897
:1015F00000F07BF8FEE70FB9306C48B9FFF78BF9C4
:1016000078B9029868B185F3118800F06EF8FEE7AA
:1016100085F3118800F069F8FEE700F070F8FEF736
:10162000BDFFFFF7D6FBB56B00F058F8002D31D1A8
:101630000298002844D00CB900F06DF8FFF7E2FBE7
:10164000FEF7A6FFFFF7C5FB06F14400415711F175
:10165000010F04BF0022027000F058F804BF0022FE
:101660004270FFF7CFFB02A9FFF764FF0028304666
:101670002AD100F0D1F80028CFD000F03BF800F0DC
:101680003EF8FEF78BFF0028CBD1C8F8009000F0A1
:101690002CF8C6E73946304600F079F86D1EB56380
:1016A000306940B106F11000FFF77DF818B1C8F8B5
:1016B000009000F01AF8FFF7A5FB0120BDE8FE83BB
:1016C000FFF7A0FB0020F9E700F074F8FEF766FFD3
:1016D000304600F0A1F80028A3D0F3E7DFF87081CE
:1016E0004FF08059704787F31188BFF34F8FBFF3D6
:1016F0006F8F7047029906F12400FFF72BB8304630
:1017000058E090F9001011F1010F704790F90110A5
:1017100011F1010F704768460124FFF77BB804F10F
:101720001000FFF740B8F8B506461446B56B326CAA
:10173000002742B9316831BBB068FFF7FBF80021E0
:101740000746B1601FE064B9706800F0A9F8B2689C
:101750007068316C40189042706014D330687060CB
:1017600011E0F06800F09CF8306CF1684042091814
:10177000F1603268914202D2B3681818F060022C0E
:1017800001D105B16D1E6D1C3846B563F2BD38B58B
:10179000026C0B466AB1C16884688918C160A142B5
:1017A00024BF0568C560C1681846BDE8384000F030
:1017B00077B831BDF8B50446FFF70BFB04F14400E0
:1017C00090F9015005E0FFF7FEFE08B1FFF758F869
:1017D0006D1E68B2012802DB606A0028F3D104F1B3
:1017E00044054FF0FF366E70FFF70CFBFFF7F1FA80
:1017F00095F9007005E0FFF792FF08B1FFF740F898
:101800007F1E78B2012802DB20690028F3D12E70F8
:10181000BDE8F140FFF7F6BA10B50446FFF7D9FA74
:10182000A06B441EA441FFF7EDFAE00F10BD10B508
:101830000023084C54F833201AB15B1C082BF9D351
:1018400010BD44F8331004EBC301486010BD000024
:1018500004ED00E06C490020F8B504460D4616463C
:1018600004F13807FFF7B5FA97F90C0010F1010FF2
:1018700004BF0021397397F90D0010F1010F04BF67
:1018800000217973FFF7BEFA386828B93246294635
:1018900004F12400FEF76EFF2046BDE8F24089E720
:1018A0004AB1000011F8013B521E00F8013B1CBF79
:1018B00011F8013BF8E77047F8B5040029D020780B
:1018C000DFF87454C10711D52869A96A00F03800FF
:1018D000102805D0182804BF01F0030102292CD1DB
:1018E00029688A0302D56068002812D021788A0707
:1018F00065D52869A96A10F0380005D0182808BFF6
:1019000011F0030F40F08E80E06829684A0702D585
:10191000002800F0F181296821F0190108432860AE
:1019200000F012FA06462868410741D400F00CFA8C
:10193000801B0328F7D30320F2BD6068B0F5803F19
:101940000FD038B9296821F480312960286820F443
:10195000802009E0B0F5A02F08D1296841F480214A
:101960002960286840F48030286007E02A6822F463
:1019700080322A60296821F480212960606858B18A
:1019800000F0E2F9064629688803AFD400F0DCF9DC
:10199000801B6528F7D3CEE700F0D6F90646286805
:1019A0008103A3D500F0D0F9801B6528F7D3C2E7E7
:1019B0006868216920F0FE4040EA01606860207894
:1019C000C10619D52869A96A00F03800082805D091
:1019D000182804BF01F00301012946D12868C10578
:1019E00003D5E269802A40F08781E868216A20F007
:1019F0007C5040EA0160E8602278110767D5606991
:101A0000002854D0696F41F00101696700F09CF92A
:101A10000646686F81075AD400F096F9801B0328A8
:101A2000F7D388E7E06880B1296821F019010843FD
:101A3000286000F089F9064628684107B8D400F00C
:101A400083F9801B0328F7D375E72A6852085200F0
:101A50002A6000F079F9064628684107AFD500F002
:101A600073F9801B0328F7D365E7E06978B129682B
:101A700041F08001296000F067F906462868C10539
:101A8000B3D400F061F9801B0328F7D353E72A6829
:101A900022F080022A6000F057F906462868C10546
:101AA000AAD500F051F9801B0328F7D343E7686FEC
:101AB00040084000686700F047F90646686F8107F4
:101AC00005D500F041F9801B0328F7D333E72178CF
:101AD0008A0621D5A069296800280ED041F48051DA
:101AE000296000F031F906462868810414D400F01A
:101AF0002BF9801B0328F7D31DE721F480512960BF
:101B000000F022F906462868810405D500F01CF98A
:101B1000801B0328F7D30EE72078420748D5874F6C
:101B2000396841F48071396000F00EF90646386872
:101B3000C10505D400F008F9801B6528F7D3FAE643
:101B4000A068012804D1286F40F00100286713E045
:101B500008B9286F09E00528286F06D140F0040075
:101B60002867296F41F0010105E04008400028671F
:101B7000296F21F004012967A06841F2893658B124
:101B800000F0E2F80746286F810711D400F0DCF876
:101B9000C01BB042F7D3CEE600F0D6F80746286F58
:101BA000810705D500F0D0F8C01BB042F7D3C2E6DC
:101BB000606A002800F0BE802969614E01F038019A
:101BC000182973D02968022821F08071296061D119
:101BD00000F0BAF807462868810105D500F0B4F88E
:101BE000C01B0328F7D3A6E6AB6AA16A5548E26A90
:101BF00003400B4343EA0213AB62616B206BA26BA1
:101C0000491E4902401EC0F30800521E01F47E41E5
:101C100012040843E16B02F4FE021043491E090658
:101C200001F0FE4108432863E86A40084000E8628A
:101C3000696BA06C0E4046EAC0066E63E96A206CD0
:101C400021F00C010143E962E96A606C21F00201B4
:101C50000143E962E96A41F48031E962E86A40F4EB
:101C60000030E862E96A41F48021E962E86A40F004
:101C70000100E862296841F08071296000F064F891
:101C800004462868810155D400F05EF8001B032843
:101C9000F7D350E600F058F804462868810149D58A
:101CA00000F052F8001B0328F7D344E60128A96A84
:101CB0002A6B21D0A36A01F00300984202BFC1F34E
:101CC0000510E16A884217D1236BC2F30800401C5B
:101CD000984201BFC2F34620401C616B88420BD181
:101CE000A16BC2F30640401C884201BFC2F30660EC
:101CF000401CE16B884201D00120F2BD686BA16CF1
:101D0000C0F3CC00814215D0E86A40084000E86288
:101D100000F01AF8054600F017F8401BFBD0064803
:101D2000416BA26C0E4046EAC2064663C16A41F0AE
:101D30000101C1620020F2BD00440258004802586F
:101D40000700FFFF0CFCFFFF01484068704700BF21
:101D50000C0000202DE9F041040088465AD0DFF83D
:101D6000A873386800F00F00404502D200F0D0F8A8
:101D700050D12078DFF89453420706D52069A9692D
:101D800001F07001814200F0E2F82078020706D5E8
:101D90006069E96901F07001814200F0D1F82078B2
:101DA000C20606D5A069E96901F4E061814200F04C
:101DB000C0F8207882060AD5E069296A01F070012E
:101DC000814204D22A6A22F07002104328622078ED
:101DD000820706D5E068A96901F00F01814200F091
:101DE000A1F82078C20731D5A969A06821F47061F3
:101DF0000143A9616068022802D129688A0308E0CA
:101E0000032802D129688A0103E0012803D1296847
:101E1000CA0503D42CE02B68590729D52A69D208B2
:101E200040EAC2002861FFF78FFF06462869616813
:101E300000F03800B0EBC10F08D0FFF785FF801B22
:101E400041F289329042F1D303205FE0207882078B
:101E500006D5E068A96901F00F01884200F062F838
:101E6000386800F00F00804504D200F051F801D02E
:101E700001204BE02078420706D52069A96901F0CE
:101E80007001884200F063F82078020706D5606987
:101E9000E96901F07001884200F052F82078C2062A
:101EA00006D5A069E96901F4E061884200F041F8D3
:101EB000207881060AD5E0692A6A02F07002904211
:101EC00004D2296A21F070010843286200F046F824
:101ED000AA69DFF84C12C2F303228B5CAC69DFF80D
:101EE000305204F00F04095D03F01F03D840DFF8FF
:101EF000243201F01F0120FA01F21A602860DFF895
:101F00001C020068BDE8F04100F016B9BDE8F081A0
:101F10003968090948EA011139603A6802F00F028C
:101F20004245704704D2AA69120940EA0210A8612A
:101F3000704704D2EA6922F4E0621043E861704716
:101F400004D2EA6922F070021043E861704704D2BB
:101F5000AA6922F070021043A861704730B56B4B3C
:101F60006D48196911F0380104D010290AD01829D8
:101F70000AD069E01A68940667D51968C1F3C101EF
:101F8000C84030BD684830BD9C6A996ADD6A5A6BAA
:101F900005F00105C1F30511C2F3CC025543002938
:101FA00000EE105AB8EE400A4CD014F0030400EED4
:101FB000901AF8EE600A02D0022C20D022E01968B4
:101FC0009FED4D1A20EE010A8A0608D51968C1F363
:101FD000C101C84000F03CF8C1EE200A03E09FEDCB
:101FE000472AC2EE200A186BF7EE001A00F02EF80E
:101FF00031EE000A70EE211A20EEA10A13E09FEDE7
:10200000402A01E09FED3F2A186BDFED3B1AC2EE3C
:10201000200A00F01BF800EE211AB7EE000A31EE9C
:10202000000A20EE800A186BC0F34620401C00EE28
:10203000900AF8EE600A80EE200ABCEEC00A10EEAC
:10204000100A30BD002030BD384830BDC0F3080054
:1020500001EE100AB8EE411A704710B5FFF77EFF87
:10206000334A2F4B11681268294CC1F30321595C84
:1020700002F00F0201F01F01C84020609A5C254960
:1020800002F01F02D040086010BD80B5FFF7E5FFE9
:1020900000F007F8C3F30222895C01F01F01C84079
:1020A00002BD244A1E491368704710B53F220260E2
:1020B0001C4A136803F007034360946804F47064D7
:1020C0008460936803F00F03C360946804F07004A5
:1020D0000461D36803F070034361D46804F4E064DE
:1020E0008461126902F07002C2610748036803F05C
:1020F0000F030B6010BD0000000000390024744C79
:1021000020BCBE4B0024744A0020005200440258F8
:10211000180000201C0000200090D00314000020B4
:102120001C2D00081044025840787D0100093D0034
:10213000184402581C44025810B50446102C8AB0AA
:1021400030D200222146A12000F051F8A12000F059
:102150006BF81648046016480168164C41F080710F
:102160000160026801A902F080720092009802A842
:10217000FFF79BFFFFF789FF40000F4B0F4940F22D
:10218000E732B0FBF3F02160401E60600021E260A6
:1021900020462161A16000F09BF818B9204600F0AC
:1021A000A4F800E001200AB010BD000014000020D7
:1021B000EC4402582049002040420F0000E000405B
:1021C0000901020002D43C48815470473B4B02F0A5
:1021D0000F029A1802F8041C704739490A6860F324
:1021E0000A2240F2FA5060F31F420A60704770B54D
:1021F000334B1C68C4F302230124C3F10705052DEA
:102200002EBF0F2504FA05F56D1E1E1D072E34BFC7
:102210000023DB1E2940994004FA03F35B1E1A4099
:102220001143BDE87040CBE7010007D4012200F064
:102230001F018A40234B400943F820207047BFF319
:102240005F8F21480022016821F48031016002671C
:1022500070471D4940F001000867086840F480306D
:102260000860BFF34F8FBFF36F8F704710B5427890
:1022700016490A608B685B085B008B6042684A60A5
:10228000C27A037B447B120642EA0372837A42EAF3
:10229000C342837B42EA8442C47B42EA4342437A9C
:1022A00042EA0442047A007842EA032242EA440203
:1022B00002438A6010BD000000E400E018ED00E079
:1022C0000CED00E000E100E024ED00E098ED00E01E
:1022D00038B5040001D1012032BD00F076F818B9FC
:1022E00000F06FF800F0A2F954E010B590F83D103E
:1022F000012901D0012010BD022380F83D30016882
:10230000DFF8D030CA6842F00102CA600168994221
:1023100018BFB1F1804F1FD0DFF8BC2091421CBF25
:10232000DFF8B830994217D0DFF8B440A1421CBFA3
:10233000DFF8B02091420FD0DFF8AC3099421CBFDB
:10234000DFF8A840A14207D0DFF8A42091421CBFCB
:10235000DFF8A030994208D100F00FF818BFB1F5AE
:10236000803F08D000F00FF805E00B461A461968C8
:1023700041F001011160002010BD8C68DFF8781079
:1023800021400629704701680A6842F001020846A8
:10239000026070470220211D6870206800F0D2F8AA
:1023A0000120012128730122A970EA702871697146
:1023B000AA71E87129726A72A8720020E9726A70C3
:1023C00032BD002120462970704704F13C05687831
:1023D0007047000000000140000400400008004079
:1023E000000C004000040140001800400040014083
:1023F00000E0004000E4004007000100F8B504469A
:102400002068C5680669B10714D5AA0712D56FF010
:102410000203012103612177806910F0030F204638
:1024200002D000F004F903E000F002F900F087F8B0
:1024300000202077710715D5680713D520686FF045
:102440000401022201612277806910F4407F204656
:1024500002D000F0ECF803E000F0EAF800F06FF8CA
:1024600000202077310715D5280713D520686FF095
:102470000801042201612277C06910F0030F204691
:1024800002D000F0D4F803E000F0D2F800F057F8E2
:1024900000202077F10615D5E80613D520686FF0E7
:1024A0001001082201612277C06910F4407F2046A4
:1024B00002D000F0BCF803E000F0BAF800F03FF8FA
:1024C0000023237706F0010205F001010A4206D03D
:1024D00027686FF0010320463B6100F07DF916F498
:1024E000025F08D02A0606D521686FF40250086101
:1024F000204600F087F9F20508D52B0606D521689D
:102500006FF480700861204600F07DF9720608D5EE
:102510006B0606D521686FF040000861204600F088
:1025200073F9B0060AD5AA0608D520686FF0200115
:1025300001612046BDE8F24000F067B9F1BD2046D8
:1025400000F064B92DE9F043DFF8B8C00368DFF8A4
:10255000B840DFF8B850DFF8B880DFF8B890DFF89F
:10256000B820DFF8B8E0DFF8B860604518BFB0F118
:10257000804F07D0B04218BF704503D0904218BFBB
:1025800048450DD123F070074B683B43604518BFA9
:10259000B0F1804F14D0B0421CBF704590420FD0B4
:1025A000484518BF40450BD0A84218BFA04207D0ED
:1025B000DFF8702090421CBFDFF86C20904203D1FE
:1025C00023F44076CB6833434A69D1F808E023F01E
:1025D0008003C0F82CE00E6813438662604518BF84
:1025E000484504D040451CBFA842A04201D109691A
:1025F00001630268012442F0040202604461036046
:10260000BDE8F08300000140004801400044014063
:102610000040014000040140000C00400008004060
:102620000004004000E0004000E4004070477047B4
:102630007047000038B586B010210022684600F0CF
:10264000E7F8FFF7FCFD012100228DF800101F21A3
:102650008DF8012000238DF80810012187220193B5
:102660008DF809206846ADF80A305F4C8DF80C10E3
:102670005E4D8DF80D10ADF80E30FFF7F7FD04201C
:10268000FFF7E7FD00F0CEF800F046F81421002235
:1026900001A800F0BDF85648026842F080020260CE
:1026A000016801F080010091009A036843F0400343
:1026B0000360016801F040010091009A0368002264
:1026C00043F001030360006800F0010000900099EE
:1026D0002046802100F0B4F98021012201910023DD
:1026E000029201A9039320460493424C00F0C8F8DB
:1026F00000F0D7F92A4600210FF2BD0000F0F8F9EA
:10270000206005F1240200210FF2B90000F0F0F979
:10271000606000F0D5F9FEE780B59CB04C21002246
:1027200009A800F075F82021002201A800F070F837
:10273000022000F041FA002000902F48026822F4A5
:1027400040420260016801F440410091009A016832
:102750008B04FCD54FF4803101220A912C2109927F
:10276000022315910C2116920022129309A81393AB
:1027700014931793189319911A921B92FFF79CF8D0
:1027800008B100F03DF83F21032201910821029297
:102790004022049140210592002306914FF480626B
:1027A00008910321039301A80792FFF7D3FA08B118
:1027B00000F026F81DB000BD80B5012000F0E5F95D
:1027C000FBE7000080B58021074800F03DF94FF499
:1027D000FA7000F0DAF9F6E700680849884208BFA5
:1027E00000F012BA70470000001802582C2D0008A3
:1027F000E0440258AC4900201848025800E000406C
:1028000072B6FEE770477047704770477047000028
:102810004018491C1CBFB1F1010100F8012DF9D18C
:102820007047000038B50320114DFFF7D6FCFFF7C5
:1028300095FB1049104A0B68C3F30323D45C096865
:1028400001F00F01525C04F01F04E0400B4C02F059
:102850001F0220FA02F3236028600F20FFF76CFCB0
:1028600008B1012032BD00F0D7F9002032BD0000D0
:1028700018000020184402581C2D00081C000020DD
:102880002DE9F84F0027DFF8D0814FF0B045DFF891
:10289000CC9102460B462EE0714CA24214BF0A2492
:1028A00009248C4044EA0E046E49C64341F82C408A
:1028B00029685C683140E40248BF014329606968C7
:1028C0005C683140A40248BF01436960D8F8041035
:1028D0005C683140A40348BF0143C8F80410D8F82D
:1028E000001006EA010C5968C90348BF40EA0C0C05
:1028F000C8F800C07F1C186830FA07F100F09E800D
:102900000121B9400840F5D04FEA470C032404FAEE
:102910000CF46FEA040E5C6804F00306012E1CBF81
:1029200004F00304022C10D19468DE680EEA04045B
:1029300006FA0CF634439460546824EA01015C689A
:10294000C4F30014BC40214351601C79B90004F069
:102950000304032C20D0D4689E680EEA040406FA0F
:102960000CF63443D4601C7904F00304022C13D118
:10297000FE084FF00F0A02EB860401F01C060AFA6B
:1029800006FAD4F820B02BEA0A0BD3F810A00AFA02
:1029900006F646EA0B06266214680EEA04061C795F
:1029A00004F0030404FA0CF444EA060CC2F800C074
:1029B0005C6814F4403F9DD0D9F800404FEA970C72
:1029C00001F00C01284E44F00204C9F80040D9F887
:1029D00000E00EF0020ECDF800E0009CDFF884E08D
:1029E0005EF82CE00F248C40B2422EEA040E08BFA1
:1029F000002422D01D4CA24208BF01241DD01C4C33
:102A0000A24208BF022418D01A4EB24208BF0324C3
:102A100013D0194CA24208BF04240ED0174EB24264
:102A200008BF052409D0164CA24208BF062404D0D2
:102A3000144EB2427FF430AF072432E7BDE8F18F85
:102A400002B9090481617047426901EA02039143B6
:102A500041EA03418161704780000058F444025804
:102A600000240258080400580000025800040258CC
:102A700000080258000C02580010025800140258B6
:102A800000180258001C025880B5DFF818010168D0
:102A9000FDF741FF012803D0BDE80140FEF7C3B9AF
:102AA00001BDEFF3058000B16CE0DFF8FC100868B1
:102AB00010B901220A6070474FF0FF3070470000E4
:102AC00010B5EFF3058008B100F072B8DFF8D80058
:102AD0000368012B09D10021DFF8D02011700224F6
:102AE0000460FDF71EFD002010BD4FF0FF3010BD4B
:102AF000F8B584B000230393EFF30583002B3ED198
:102B000003003CD080251826002462B3136803B16B
:102B10001C4693691BB11E0004D0392E02D21379D2
:102B2000DF0701D500202BE0536903B19D08D2F8DF
:102B300008C0D768BCF1000F10D05C2F1FD31269FA
:102B4000002A18BF002B1AD001920B46CDF808C0FE
:102B50002A4600962146FDF7B9FB0FE0002F04BF7F
:102B60001269002A0BD103AB009601930B46AAB25F
:102B70002146FDF7DCFB012801D0002003900398DB
:102B800005B0F0BD6FF00500704710B5EFF305819B
:102B900011B16FF0050403E0002408B1FDF79BFCC0
:102BA000204610BD10E000E0B44900201FED00E019
:102BB0006FF0050010BD000038B5DFF84840A1688F
:102BC0004A0708D4A36803F00703834201D0012019
:102BD00032BD002032BDA168C90840EAC100A06032
:102BE000FFF7B2F8054620688204F2D4FFF7ACF88C
:102BF00000F002F8F7D3EAE7401B40F2E9318842DF
:102C000070470000044802580248416802788A1858
:102C1000426070470C00002082B008480168002222
:102C200041F00201016000680F2100F002000090F5
:102C3000009B6FF0010002B0FFF7D9BAF4440258CC
:102C400070B52C482C4A016841F47001016010688D
:102C5000072100F00F00072803D2106861F303007A
:102C60001060264B00261D68254845F001051D60B3
:102C70001E611C6804401C60156805F00F05072DD7
:102C800003D9106861F303001060002100229961EC
:102C90000020DA611B4918621B4A99621B48DA62FC
:102CA00000211863002259639863DA6318640020D6
:102CB00058641968164821F4802119601A6603685F
:102CC000DC040BD4056843F2D201124A45F4805566
:102CD00005601160036823F48053036070BD000039
:102CE0000D48816841F00201816002689104FCD5C1
:102CF0007047000088ED00E00020005200440258B8
:102D00007FEDF6EA000202020000FF0180020101ED
:102D1000D444025800400052044802580000000009
:102D2000010203040102030406070809EC2E00084F
:102D30000000000000000000000000000000000093
:102D40000002000018000000000000000000000069
:102D5000DC2E000800000000000000000000000061
:102D60000000000000020000080000000000000059
:102D70000000000030B4002512E050F8042BD30707
:102D800044BF4A44521E091F042942F8045BFAD288
:102D900013468C0744BF15809B1CC90748BF1D7094
:102DA00050F8041B0029E8D130BC704710B5074922
:102DB00079441831064C7C44163404E00A68081D36
:102DC000891888470146A142F8D110BD7C00000057
:102DD0009C0000004EF68851CEF20001086840F4D5
:102DE00070000860BFF34F8FBFF36F8F4FF001701B
:102DF000E1EE100A7047000000F00FF8002801D043
:102E0000FFF7D4FFAFF300800020AFF30080AFF3F3
:102E10000080FFF70FFC00F002F80120704700F07F
:102E200001B8000000F000F80746384600F002F84C
:102E3000FBE7000080B5AFF30080024A11001820C4
:102E4000ABBEFBE7260002002DFFFFFF9849000004
:102E500020000020000000006BDEFFFF20000000CB
:102E60000C00000000000020000000000000000036
:102E7000AAAAAAAA000000000100000000000000A9
:102E8000100000000090D0030090D0034EF6A55033
:102E9000CFF6F560014603B4684680F30988AFF3C6
:102EA0000080FFF797FFFFF7A7FF00000248804769
:102EB0000248804702480047E12C0008412C0008E6
:102EC0008D2E0008FEE7FEE7FEE7FEE7FEE770470F
:102ED0000148FFF793BA000020490020426C696E58
:102EE0006B696E675461736B000000006465666116
:102EF000756C745461736B00FFF7FEBFFFF7FEBF84
:102F0000FFF7FEBFFFF7FEBFFFF7FEBFFFF7FEBFF5
:102F1000FFF7FEBFFFF7FEBFFFF7FEBFFFF7FEBFE5
:102F2000FFF7FEBFFFF7FEBFFFF7FEBFFFF7FEBFD5
:102F3000FFF7FEBFFFF7FEBFFFF7FEBFFFF7FEBFC5
:0400000508002E8D34
:00000001FF
